:100000000C9434000C943E000C943E000C943E0082
:100010000C943E000C943E000C943E000C943E0068
:100020000C943E000C943E000C943E000C943E0058
:100030000C943E000C943E000C943E000C943E0048
:100040000C943E000C943E000C943E000C943E0038
:100050000C943E000C943E000C943E000C943E0028
:100060000C943E000C943E0011241FBECFEFD8E04C
:10007000DEBFCDBF0E9467000C9473000C9400009B
:1000800008959C0180E090E04CE251E004C0FA0148
:100090003197F1F7019682179307C9F708950895EC
:1000A000811108C0613021F4209A089520980895A4
:1000B0006623E1F30895811108C0613021F4289A84
:1000C0000895289808956623E1F308950895209AE5
:1000D00088EE93E00E944100289A80ED97E00E940C
:0A00E00041002898F5CFF894FFCFF7
:00000001FF
